S0110000415652382D546573742E7372656325
S113000059C0000067C0000065C0000063C0000064
S113001061C000005FC000005DC000005BC0000064
S113002059C0000057C0000055C0000053C0000074
S113003051C000004FC000004DC000004BC0000084
S11300404AC0000047C0000045C0000043C0000093
S113005041C000003FC000003DC000003BC00000A4
S113006039C0000037C0000035C0000033C00000B4
S113007031C000002FC000002DC000002BC00000C4
S113008029C0000027C0000025C0000023C00000D4
S113009021C000001FC000001DC000001BC00000E4
S11300A019C0000017C0000015C0000013C00000F4
S11300B011C0000011241FBECFEFD8E0DEBFCDBFBA
S11300C021E0A0E0B1E001C01D92A430B207E1F745
S11300D028D141C195CF1F920F920FB60F921124D0
S11300E08F939F938091010190910001981710F4D0
S11300F05E9A01C05E988091020190910001981768
S113010010F45D9A01C05D98809103019091000103
S1130110981710F45F9A01C05F98809100018F5F77
S1130120809300019F918F910F900FBE0F901F90AD
S11301301895882331F090E00F920F909F5F8913F8
S1130140FBCF08950F931F93CF93DF930097B9F0DC
S11301508C01C0E0D0E08AEFECDF8AEFEADF8AEFBF
S1130160E8DF8AEFE6DF8AEFE4DF8AEFE2DF8AEF97
S1130170E0DF8AEFDEDF21960C171D0761F7DF91C0
S1130180CF911F910F910895FF920F931F93CF93D7
S1130190DF93C0E0082F10E0C09301011092020128
S11301A010920301D02FF12EC801CCDFCF5FCF3FD7
S11301B099F7C093010110920201109203018D2F4F
S11301C09F2DC0DFC150A9F7DF91CF911F910F91EF
S11301D0FF900895FF920F931F93CF93DF93C0E096
S11301E0082F10E010920101C09302011092030144
S11301F0D02FF12EC801A6DFCF5FCF3F99F7109221
S11302000101C0930201109203018D2F9F2D9ADFEB
S1130210C150A9F7DF91CF911F910F91FF900895DD
S1130220FF920F931F93CF93DF93C0E0082F10E04A
S11302301092010110920201C0930301D02FF12EFC
S1130240C80180DFCF5FCF3F99F710920101109270
S11302500201C09303018D2F9F2D74DFC150A9F7B4
S1130260DF91CF911F910F91FF900895FF920F930B
S11302701F93CF93DF93C0E0082F10E0C0930101D8
S1130280C0930201C0930301D02FF12EC8015ADF9D
S1130290CF5FCF3F99F7C0930101C0930201C09390
S11302A003018D2F9F2D4EDFC150A9F7DF91CF9110
S11302B01F910F91FF900895FF920F931F93CF9377
S11302C0DF93C0E0082F10E0C09301018C2F8095CC
S11302D080930201D02FF12EC80134DFCF5FCF3FCE
S11302E099F7C0E0C09303018C2F8095809301019E
S11302F08D2F9F2D27DFCF5FCF3FA1F7C0E0C093A5
S113030002018C2F8095809303018D2F9F2D1ADF7E
S1130310CF5FCF3FA1F7DF91CF911F910F91FF9056
S1130320089580EE8AB91BB884B5816084BD85B513
S1130330816085BDEEE6F0E0808181608083789401
S113034088E022DF88E046DF88E06ADF88E08EDF2D
S10D035080E1B2DFFDCFF894FFCF87
S9030000FC
